:020000041000EA
:1000000000B5324B212058609868022188439860DF
:10001000D860186158612E4B002199600221596106
:100020000121F02299502B49196001219960352056
:1000300000F044F80222904214D00621196600F024
:1000400034F8196E01211966002018661A6600F04E
:100050002CF8196E196E196E052000F02FF8012189
:100060000842F9D1002199601B49196000215960AB
:100070001A491B48016001219960EB211966A021F2
:10008000196600F012F800219960164914480160C1
:100090000121996001BC002800D000471248134993
:1000A000086003C880F30888084703B5996A0420EC
:1000B0000142FBD001200142F8D103BD02B5186610
:1000C0001866FFF7F2FF186E186E02BD00000240BE
:1000D000000000180000070000035F00212200005C
:1000E000F4000018222000A00001001008ED00E03C
:1000F00000000000000000000000000074B24E7A12
:1001000000200420F7010010CB010010CD010010E9
:10011000C9010010C9010010C9010010C901001077
:10012000C9010010C9010010C9010010CF01001061
:10013000C9010010C9010010D1010010D301001045
:10014000C1010010C1010010C1010010C101001067
:10015000C1010010C1010010C1010010C101001057
:10016000C1010010C1010010C1010010C101001047
:10017000C1010010C1010010C1010010C101001037
:10018000C1010010C1010010C1010010C101001027
:10019000C1010010C1010010C1010010C101001017
:1001A000C1010010C1010010C1010010C101001007
:1001B000C1010010C1010010C1010010C1010010F7
:1001C000EFF30580103800BE00BE00BE00BE00BECA
:1001D00000BE00BEF2EB8871309F0610609F0610D3
:1001E0003802001090A31AE71E481F49086006C88D
:1001F00081F3088810471D480068002801D019487D
:10020000F3E70DA40ECC002902D000F012F8F9E7B4
:100210001749184A002000E001C19142FCD116495B
:100220008847164988471649884700BEFDE701C937
:1002300001C29A42FBD37047609F0610C0000020A5
:1002400030310020D0CF0610000004200000042030
:10025000D0CF061000100420001004200000000081
:10026000704700000000000008ED00E0000000D032
:1002700030310020B05B0020915600105505001071
:1002800051560010F8B5C04606480749091A8B10A8
:10029000C90FC91810B5491003D0044B002B00D06A
:1002A000984710BD303100203031002000000000A0
:1002B000054B10B5002B03D00449054800E000BFF2
:1002C000FFF7E2FF10BDC04600000000585A0020B2
:1002D00000690510080070471C2800D07047D02323
:1002E0001B065B68054A1B0103D5136801331360C5
:1002F000F4E71368013B1360F0E7C046585500204F
:1003000030B5122487B000236A466C44D37423703E
:1003100001F03AFE0023484A484D8018594100290F
:1003200002DA012046494042012313220290039140
:1003300000936A446821280008F016FA01F024FEB0
:1003400000233D4A80185941002902DA01203C4926
:100350004042002302900391009322000133682160
:10036000280008F025FA2378EA2B5CD075236A462A
:10037000D37401F009FE00232F4A80185941002947
:1003800002DA01202E4940420123132202900391F8
:1003900000936A446821280008F0E6F901F0F4FDB2
:1003A0000023254A80185941002914DB00230290BC
:1003B00003912200009368210133280008F0F8F926
:1003C000022223789343712B09D01E4805F000FBCD
:1003D000002007B030BD012019494042E6E71A4825
:1003E00005F0F6FA3B22194B1A706C23FF336A466C
:1003F000938201F0C9FD00230F4A8018594100295A
:1004000002DA01200E49404200230290039100933A
:100410006821023305AA280008F0A6F9642001F03B
:1004200085FC0120D5E70A4805F0D2FA2D22074BBA
:100430001A7083235B00DAE7A08601009020002079
:10044000FFFFFF7F5469051028690510A95B002094
:1004500000690510F0B5384C0500237887B0002BF3
:1004600002D1002007B0F0BD01F08EFD0023334A19
:10047000334E12184B41002B02DA0122314B52420B
:10048000029203930123220068213000009308F0B8
:100490006BF90028E5DB01F077FD0023274A04AC67
:1004A00080185941002942DB0023029003910093F8
:1004B000220068213000063308F07AF90028D0DBEA
:1004C00020886788C0BA03F0E7FA03F007FB1E4AEA
:1004D0001E4B02F0F6FB00221D4B02F0F2FB02F075
:1004E000E7FCFFBA2860380003F0D6FA03F0F6FA0A
:1004F000154A164B02F0E5FB0022154B02F0E1FB1A
:1005000002F0D6FCA6886860F6BA300003F0C4FAA0
:1005100003F0E4FA0C4A0D4B02F0D3FB00220C4B23
:1005200002F0CFFB02F0C4FCA86001209AE7012092
:1005300004494042B8E7C046A95B0020A0860100FC
:1005400090200020FFFFFF7F182D4454FB21F93F2E
:100550000000103FF0B5DE4657464E464546E0B532
:10056000C7B005F0E3F9B449B44808F0D5F8032161
:10057000062000F0E9FB0321072000F0E5FB002244
:100580000121062000F0FAFB00220121072000F0E3
:10059000F5FBFA20C00001F0C9FBA94805F018FAE4
:1005A000A84805F015FAFFF7ABFE002807D1A648CA
:1005B00005F00EFAFA20800001F0B8FBFAE70125F9
:1005C0000421022000F0C0FBA04BA14A1C205A626B
:1005D000A04BA14A1B68D0249BB213602A009F4BFA
:1005E00024061B689A439E4B1A6000F043FC80234C
:1005F0005B05A362002229001C2000F0BFFB1B202A
:1006000000F038FC80231B05A362002229001B2078
:1006100000F0B4FB2A0008211C20924B00F0C2FB22
:10062000914B1A229A461800904922F029FE53460F
:100630001B680C3B1B685344DC6F002C00D1F9E0B5
:10064000237F002B00D1BAE02723E15C504622F043
:10065000A7FD22F011FD7F4BFA201A68FA231B0137
:1006600053407D4A9BB21360C00001F05FFB0CABAE
:100670001800E8227E49994603F0D0FA01F084FC84
:1006800009AB98467B4B06009B467B4B0F000793BC
:100690007A4B069380E04346986803F01FFA43467E
:1006A00004000D00186803F019FA22002B0002F074
:1006B0000BFC734A734B04000092019302000B0081
:1006C00048460D0000F0EAF80722029003915946CF
:1006D000504622F0D5FD2B002200504622F02CFF80
:1006E00004000799212222F0CBFD029A039B2000EF
:1006F00022F022FF04000222069922F0C1FD2368A5
:100700000C3B1B68E318DD6F002D00D192E02B7FBE
:10071000002B62D02723E95C200022F041FD22F06B
:10072000ABFC0299039A53005B0805934B46049176
:100730001A6D5B6D0498059902F0A5FA524B0022E0
:1007400002F0BFFA02F070FB414B041C80B29842E9
:1007500000D91C1C0022029803990023A4B202F0C5
:1007600011FB002846D0D02380221B06D2015A61FB
:10077000802212029A61802252015A6180229201E3
:100780009A61344B1B685C402404334B240C1C607E
:100790003000390001F062FA00243C4BF618674142
:1007A000002F02DA01263A4F76424046FFF752FE0A
:1007B000002800D06FE7374805F00AF9E8E7200085
:1007C0000CF064F923680A219A69334B9A4200D1EC
:1007D0003CE720009047010038E728000CF056F96C
:1007E0002B680A219A692C4B9A4295D02800904791
:1007F000010091E7002202980399002302F0ACFA6D
:10080000D02380221B06D2019A6180221202002886
:1008100008D19A61802252019A61802292010024BB
:100820009A61AEE75A61802252019A618022920158
:100830005A61A6E716F010F8801A060090200020F2
:100840007C690510AC690510DC69051000000540E5
:1008500088130000200005402010054014000540CA
:1008600014100540D90200103C480020F46905101E
:1008700060860510106A0510186A05103C6A05109C
:100880007B14AE47E17A843F0088B3401027000014
:10089000FFFFFF7F406A0510D5020010F0B5474604
:1008A0008046CE461900434610001C6F5D6F80B530
:1008B000220089B02B000090019102F0D2F943464A
:1008C0009E6FDF6F98331A685B6804900591200073
:1008D00029000294039502F0F4F94346A0331A6804
:1008E0005B6804000D003000390002F0EAF90200F4
:1008F0000B002000290002F0BDF980230D004146C5
:100900004344B03104000868496899461A685B6836
:1009100002F0D7F902000B002000290002F0AAF92A
:100920004346E0331A685B6804000D00049805999B
:1009300002F0C7F902000B002000290002F09AF92A
:100940004346D8331A685B68069007910498059966
:1009500002F0B7F932003B0002F08CF9109A119BBB
:1009600002F0AFF9029A039B02F084F943460400B7
:100970000D00069807991C675D67109A119B02F09D
:10098000A0F932003B0002F075F9434606000F0063
:100990009E67DF6700990A00019949004B084146AC
:1009A000086E496E02F0D8F900285FD043468022D5
:1009B000C833120609CB991822002B0002F081F9E6
:1009C0004346D03304001A685B680D0030003900DC
:1009D00002F077F902000B002000290002F041F933
:1009E0008022434612061E6D5F6DBD182B0032003B
:1009F00034000090019102F0AFF900283CD02200B1
:100A00002B003000390002F0A7F90096019700286A
:100A10002FD043469C6DDD6D009B32001800019B7A
:100A20005B0059083B0002F02EF92200029003916E
:100A30002B003000390002F014F902000B0002987C
:100A4000039902F03EF922002B0002F013F9019BFA
:100A50004A00DB0F5208DB071A4311004B461860AF
:100A6000596009B0C0BCB946B046F0BD00200021B5
:100A7000F4E700940195CCE7009C019DBFE7C046D8
:100A8000D0231B061B68AC4A9900F0B5DE468B46A6
:100A900051585A4253412F2257464E4645465B42D3
:100AA00093439A46A54BE0B59C4683B0002601913E
:100AB000E244002938D0A24B99465246F308083345
:100AC0009B009D580123340098460836002D22D003
:100AD0000F212000294001342D09002919D04B464F
:100AE0005A469A580300C240203BDB171340424647
:100AF00013420CD107220F000240920097403A00A7
:100B0000C308904F3C339B00DA51019B9847002D5E
:100B100001D0B442DCD3202ECFD103B0F0BCBB4611
:100B2000B246A946A046F0BD854E5F4600210F2380
:100B3000B346CC0822005046083292001258002AD0
:100B400000D1D0E0180010408046100913421AD09E
:100B50005D46ED59A94620256D42AC468C4465465C
:100B6000ED17AC464D46CD40A94665464E4635404C
:100B70000126354204D14646724D3C34A4006651EC
:100B8000002800D1AFE01C000440A446140A034230
:100B90001AD0481C80465846C059464681464D46A4
:100BA0000800F5401F38C01728400125284208D109
:100BB00065462D01AC46F0086646624D3C3080002B
:100BC0004651002C00D18EE0180020408446100BC6
:100BD000234211D08C1CA0465C46E4594646A146EF
:100BE0004D460C00F5401E3CE4172C4001252C42DC
:100BF00000D182E0002876D01C000440A446140CEA
:100C0000034210D0C81C80465846C059464681460B
:100C10004D460800F5401D38C017284001252842E0
:100C200075D0002C5FD0180020408046100D234264
:100C30000ED00C1DA4466546414CE459EC40A1463B
:100C40000C004D461C3CE40F2C426AD000284AD0D0
:100C50001C000440A446140E034218D0481D8046D0
:100C600045463748C059E840814608004D461B3884
:100C7000C00F284209D165462D05AC464046664660
:100C8000C008304D3C3080004651002C2BD018005D
:100C900020408446120F23422AD029488C1D8146C9
:100CA000C059E0408046080045461A38C00F284227
:100CB00006D1E0086446234D3C30240680004451B0
:100CC000002A10D04846C059CC1DE0408446080098
:100CD00065461938C00F284205D1E0083C30194C50
:100CE0001207800002510831202900D021E714E7C3
:100CF000002AF8D012488146E4E765462D02AC464A
:100D0000F40866460F4D3C34A400665172E7654610
:100D10002D03AC46F00866460A4D3C308000465133
:100D20007FE745462D04A84664464646E408054D3F
:100D30003C34A400665189E7E05400203041014072
:100D40008C5A002000400140094A83009A1810B5CF
:100D500014684022544080322240064CC000A44611
:100D600063441A60044B9C466044416010BDC04619
:100D700004C0014004D0014000400140074B800006
:100D8000C3181B68C90092000A435A400C23134041
:100D9000034A9446604403607047C04604C0014063
:100DA00004D00140F8B545469846D0231B06DE46E0
:100DB0001C689B462B4B57469A46A3004E469946C5
:100DC000E0B5534616004A469B5807000D00002B1D
:100DD00034D04346002B3FD053464A4641469950B3
:100DE000D0231B061C6863425C412F22072063420C
:100DF00093431D4A38409446FA081100800085400C
:100E00003C311A486344890092000D509B18002E13
:100E10000ED0802292019446634401210D201D6072
:100E200000F00AF9F0BCBB46B246A946A046F8BDA0
:100E3000C0229201944663441D60F3E74346002BB1
:100E4000D1D0534641460D2099500022084900F068
:100E500055F95B461C68C6E70D20054900F048FAC5
:100E6000BAE7C046E0540020304101400040014054
:100E7000810A00100123D0228340120693629361FD
:100E8000094A83009A1811684022514080320A4072
:100E90000649C0008C4663441A60054B9C460523F6
:100EA000604443607047C04604C0014004D0014024
:100EB000004001408023DB051868000F7047C046E2
:100EC0000FB400B5084883B004F082FD049B002BEA
:100ED00007D005A91800019104F04AFB034804F06B
:100EE00077FD012004F05CFB5C6A05106070051062
:100EF00070B5EFF3108C72B60D4D2B68002BFCD043
:100F0000BFF35F8F0724CB08C618C05C01230C40D9
:100F1000A3401C000440034207D118433070BFF3C4
:100F20005F8F2C608CF3108870BD1000FFF7C8FF36
:100F30002C0100D0F8B54746CE46884680B5EFF381
:100F4000108C72B61C4D2C68002CFCD0BFF35F8F48
:100F50009A4222D807210126894602E001329342B3
:100F600018D34D4637001540AF40D4080119045D31
:100F70002742F3D110003C430C70BFF35F8F002277
:100F80000D4B1A608CF3108800280EDBC0BCB946EC
:100F9000B046F8BD01204042EFE7BFF35F8F00236A
:100FA0002B608CF31088012040424346002BEDD08B
:100FB0000898FFF785FFC0462C0100D0044A10783E
:100FC000431CDBB2172B00D9102313707047C046A7
:100FD000B01F002010B5064B064C82B001000093F4
:100FE00018221F232000FFF7A5FF02B010BDC04646
:100FF0006C6A0510F85400200021044B044ABFF32A
:101000005F8F02C39342FAD17047C046000100D0FF
:10101000800100D0054B064A1360064A13605360F6
:101020009360D360136153619361704780808080C7
:1010300000E400E004E400E01F2318401E3B83406E
:10104000002905D0C021044A49005350136070475D
:10105000802201498B50FAE700E100E00122824042
:10106000034B1B6813405A1E9341D8B27047C046C9
:1010700000E100E001238340014A13607047C0464D
:1010800000E200E0064B10309B688000C358054A20
:1010900000209B1A2F229A424041C0B27047C0469E
:1010A00000ED00E0B41F002070B50D00EFF31086D6
:1010B00072B60F4A1368002BFCD0BFF35F8F0D4B45
:1010C00010309B6884001B590B4A934203D09D4209
:1010D00001D001F02DFA074B9B681D51BFF35F8FC4
:1010E000BFF35F8F0022024B1A6086F3108870BD39
:1010F000240100D000ED00E0C1010010F0B557461A
:101100004E46DE464546E0B585B006000091170024
:10111000EFF3108B72B66A4A1368002BFCD0BFF352
:101120005F8F0025674B5D579A46002D00DAA9E0D6
:101130006B00654C01935B199B009846A146C14426
:101140004B4652469B7910361370604BB6009B6835
:1011500099590B1B2F2B33D95D4B994200D0ACE032
:10116000019B42469C465B4B6544AD0063535A4B22
:101170000232A218043B9B1A1B05584A5B0D6519E5
:1011800013436B80564B0121AB80FF23AB71009B57
:10119000EF71AB604B460B4319004C4B9B68995168
:1011A000BFF35F8FBFF35F8F0022454B1A608BF355
:1011B000108805B0F0BCBB46B246A946A046F0BDBB
:1011C00001200A008243D3798C46BB4231D8454680
:1011D000130044491B1B5B415943090D3D4B6353AD
:1011E0003D4B02356519043B5B1B1B053B4D5B0DFD
:1011F0002B43AA464D466B800425AC465546E04439
:10120000131F44441B1B1B055B0D1D434B4699716B
:1012100000999D8099604946DF71334B014313600B
:10122000BBE75800C01880002018C179B9422FD9F7
:1012300002000623D356002BF3DA02932B4B6146B0
:101240000393131D9A4604235B429C46E144504697
:101250004B461B1A1B055B0D9C46204B957198460F
:101260006346404603439380019B5A199200039BB7
:10127000A418A380029B1C4AA371009B2260E77103
:10128000A3608AE701F054F9002553465D574FE704
:10129000908802934005131D9A46031561469C46AB
:1012A0004046D444634604302018181AE023000551
:1012B000400D1B0218430390C5E701F039F94FE7D1
:1012C000240100D0AB5B0020B41F002000ED00E043
:1012D000C101001000A1FFFFE41F002000E0FFFF9C
:1012E00001BDFFFFAAAA00000148804701BD000020
:1012F000F0B5DE4657464E464546E0B50C0083B095
:10130000EFF3108872B6634A1368002BFCD0BFF36A
:101310005F8F614B61499A68030010339F00D55974
:1013200001938D4243D0A54254D05D4EAA1B2F2A73
:101330003DD85C4B9B461B68994601231A009C468E
:1013400082404B4613401F22994663460240934019
:101350009A4680225B4650469850BFF35F8FEFF36A
:1013600005839B46002B37D0019B5B4501D001F0E4
:10137000DFF801232A009A439068844208D176E07E
:101380004B005B189B00F3189868844236D01A0013
:10139000062151560029F3DA844254D04B46002BE3
:1013A00027D0C02251463F4B5200995019603A4B0A
:1013B0009B68DD51BFF35F8FBFF35F8F0022354B1A
:1013C0001A6088F3108803B0F0BCBB46B246A94649
:1013D000A046F0BD0D00EAE72A0063469A439068F4
:1013E0008442D5D106201056130000280ADA0D00D9
:1013F00031E0802351462B4AD150D8E706201856B9
:10140000002821DB42001118890074188B46A1685E
:101410009960E179D971062161569971002924DB1F
:10142000A488F11A640524155C44091909051E4CA9
:10143000490D2143998013181C4A9B001178F31819
:1014400099711070AAE713005946002914D1FF3191
:1014500091711749918015490A789A71154A9B1B19
:101460005B415A43120D0A7098E71149E2E70620E2
:10147000105613000028C5DA0F4A1049D21A083A4C
:101480005002400D014399800D4952080A43DA8009
:1014900084E7C046240100D000ED00E0C101001047
:1014A000B41F002000E100E000E0FFFFAB5B002084
:1014B00001BDFFFFAAAA0000EE1F002000F0FFFF01
:1014C00000F8FFFF70B501240443EFF30581EFF34B
:1014D000108C72B6214A1368002BFCD0BFF35F8FCB
:1014E0001F4B05001F4AED1A6D416A43120D1E4D38
:1014F0008900AE6852B27658A6421CD006215956D1
:1015000091421CD012215956914222D01E21595687
:10151000914220D02A2159560324914210D0134BD6
:1015200019781A708171BFF35F8F00220B4B1A601C
:101530008CF3108870BDAB680D4C5C50EFE7002455
:101540006100091989005B18FF2199710949998087
:10155000E5E70124F4E70224F2E7C046240100D0C5
:10156000B41F0020AAAA000000ED00E0AB5B002041
:10157000C101001001BDFFFF10B5084B084C82B03F
:1015800001000093002205232000FFF7D3FC002870
:1015900001DB1F23181A02B010BDC046886A05106F
:1015A000AF5B0020024B9C4661448900016070479C
:1015B0004000003470B5114C114DAC420FD2FF26E3
:1015C0002368002B0CD0FFF7F9FC01002000FFF787
:1015D000E9FFA680BFF35F8F0834AC42F0D370BD43
:1015E000FFF7ECFC01002000FFF7DCFF2671BFF3E2
:1015F0005F8F0834AC42E3D3F1E7C04628310020C6
:101600003031002010B50400FFF7D8FC01002000A5
:10161000FFF7C8FFFF232371BFF35F8F10BDC046E4
:1016200010B504000120FFF7D5FC034BC3189B0045
:101630002360BFF35F8F10BD40000034034B9C4616
:10164000614489000160BFF35F8F70474000003440
:101650000A4B1968EFF3108072B60A68002AFCD0B2
:10166000BFF35F8F1B68BFF35F8F00221A6080F3A8
:10167000108840BF002000217047C046805B0020DA
:10168000F0B5DE4657464E464546E0B587B0EFF327
:101690000583032201251A40954091008846A946FA
:1016A000B34B03925C58B34B1D60B34B04934B4652
:1016B000B24843630823E55E002D37DAA3881BB2E6
:1016C000002B00DBADE0A379002B00D0EEE0082377
:1016D000E05E002820DB430062691B18DB00D318A2
:1016E0009E68DD68731C00D111E1A44801004144EB
:1016F000826A0B69B71A9B1A9F4215D30123026AAB
:10170000039883401A420FD09C4800F035FC8D426C
:1017100002DCCCD18642CAD940BF07B0F0BCBB4680
:10172000B246A946A046F0BD0E61EDE762696B00C6
:1017300092465B19DB009A4453469E68DF6800F0CE
:101740001BFC8F42BADC00D103E1002F00DAE8E095
:101750005246534652691B699346049A934200D1FC
:10176000D9E052460821605E528800045946104371
:101770009847009001910099019A0B0010001343C3
:1017800000D1CEE013000A00B61A9F41002806DB04
:101790007A4800F0F1FB009E019F36184F415346F6
:1017A0009E60DF6000229A5E002A00DA86E753001E
:1017B00099186069C900411802938B68C9689B46F3
:1017C000B94200DD7AE702D1B34200D976E70823B7
:1017D0009C46A444059565462281A446029B2C00A4
:1017E00006E053009918C90041188D68C968AB46D6
:1017F0009B18DB00C318B94206DC00D1B3E01C0023
:101800000023E25E002AECDA230064469C4653463D
:101810001A806346059D1D80A3881BB2002B00DA49
:1018200051E72269EFF3108172B61368002BFCD0E8
:10183000BFF35F8F0123A7885B42A3803FB2236978
:10184000BFF35F8F00221A6081F31088002F00DA47
:1018500039E72300083322009A4666697B00DB19CA
:10186000DB00F318996850468C460824115FDD6848
:10187000002910DB029306E0AB4244D00023E15E76
:101880002000002906DB4C006418E4003419E368EA
:10189000AB42F1DD029B078000201F5E1980002F04
:1018A000DCDA1400A379002B00D110E70023A37128
:1018B00026000823E15E08364B1C00D12CE7080007
:1018C000A246656902E03E004B1C1AD04B005B1833
:1018D000DB00EF180A008C46E95E7B881BB2002B08
:1018E000F1DA01235B42DC17BB60FC60824205D069
:1018F000534631801B893B8053461A8160464B1CFE
:10190000E4D15446E5E6A3686345B7D9C2E76B1C4A
:1019100000D0EAE6F8E65B4658461B69984700287F
:101920001BD153461B8822692381EFF3108372B6C3
:1019300011680029FCD0BFF35F8F514662880A808E
:1019400022696580BFF35F8F0021116083F31088E7
:10195000B4E6864200D8F8E6B0E65B461A685B68F3
:101960000092019307E7B34500D848E74CE7C0462B
:10197000785A00203C700540811600100040054058
:1019800070B52E4C2569002D04D00A212C48FFF794
:1019900009FE70BD2B4E0321300000F0E3FAE66033
:1019A000FFF70CFB284B03229C46D02322701B061A
:1019B0001B6801216370254B6044A3600F238000E6
:1019C00020610220638063694942A180198002314D
:1019D000198647311D83585218315A5275325C3975
:1019E00099521832013199521832013199521832F4
:1019F00001319952083518329D52023118329952EC
:101A0000183201319952183201319952183201318C
:101A100099521832013199521832013199520C4BB6
:101A20000C49DC6001303562FFF73EFB01210320E9
:101A3000FFF702FB084B1D60A7E7C046FC1F002014
:101A4000805B00200040054040000034FFFF100094
:101A5000785A002081160010386005400048704711
:101A6000FC1F0020F8B51F0008AB1B78040016000F
:101A7000002B08D100F088FA32003B00121A8B418B
:101A8000002B00DA52E02269EFF3108072B613687F
:101A9000002BFCD0BFF35F8F0223E15E63694A0035
:101AA0005218D2009B182269002936DB1D886580F8
:101AB000BFF35F8F0025156080F31088069A9E6043
:101AC000DF601A61079A5A615A8801325204520C37
:101AD000101C002A1FD082B25880080410432669C7
:101AE000EFF3108772B63268002AFCD0BFF35F8F25
:101AF000A2881A80A1802369BFF35F8F00221A6039
:101B000087F310880A4923788C4601329A40E368AB
:101B100063441A60F8BD0120DDE7BFF35F8F002347
:101B2000136080F3108801204042F3E70020F1E7C2
:101B30003C20000070B501000469EFF3108C72B610
:101B400020680028FCD0BFF35F8F02200D5E4C6937
:101B500068004019C00024180869002D36DB26886B
:101B60004E80BFF35F8F002606608CF31088E36021
:101B700063880498013320615B0405985B0CA260C4
:101B800060611A1C002B1FD093B228046280184396
:101B90000A69EFF3108C72B61368002BFCD0BFF308
:101BA0005F8F8B8823808D800B69BFF35F8F00224E
:101BB0001A608CF310880B7801329A40CB68084980
:101BC0008C4663441A6070BD0122DDE7BFF35F8F6E
:101BD000002303608CF3108801204042F3E7C046E5
:101BE0003C20000010B543890A1493421ADD5300CB
:101BF0009B184269DB00D3180469EFF3108C72B6AE
:101C00002268002AFCD0BFF35F8F5A88090494B27F
:101C1000090C8A4208D00369BFF35F8F00221A6063
:101C20008CF31088002010BD8022120214435C80C7
:101C3000012302698371BFF35F8F002111608CF370
:101C40001088044902788C469340C268012062449F
:101C50001360E8E73C20000040787047F0B50600CC
:101C60000F0006246442E517C646A4197D4100B55D
:101C700082B08D4214D811D000F086F922002B00DA
:101C8000121A8B41002B15DC002B44D03000390098
:101C900000F0B8F902B080BCB846F0BD8442EBD980
:101CA0000024002500F070F922002B00121A8B414D
:101CB000002BE9DD00F068F922002B00121A8B419D
:101CC000002B0ADB00230193144B220000931448DD
:101CD0002B00FFF72FFF0130D8D0A04629000024A9
:101CE000104A1148536A994204D8956A4545CDD2A5
:101CF0009942CBD10568EFF3108C72B62B68002B9C
:101D0000FCD0BFF35F8F0368BFF35F8F1C608CF361
:101D1000108820BFE6E7002AB8D0CBE751160010A4
:101D2000FC1F002000400540805B0020F0B5C64647
:101D300000B582B0040000F027F9FA2206000F0077
:101D4000200000230021920001F048FE8019794113
:101D500004000D1E02DA01242E4D6442062676424E
:101D6000F71736196F41AF4214D811D000F00CF9B3
:101D700032003B00121A8B41002B15DC002B46D0A1
:101D80002000290000F03EF902B080BCB846F0BD4A
:101D9000A642EBD90026002700F0F6F832003B00FF
:101DA000121A8B41002BE9DD00F0EEF832003B0007
:101DB000121A8B41002B0ADB00230193164B3200D1
:101DC000009316483B00FFF7B5FE0130D8D0002342
:101DD0003900B0469C46124A1248536A994204D8C8
:101DE000966A4645CCD29942CAD10668EFF310876D
:101DF00072B63368002BFCD0BFF35F8F0368BFF36C
:101E00005F8F66461E6087F3108820BFE5E7002AD3
:101E1000B6D0C9E7FFFFFF7F51160010FC1F00205E
:101E200000400540805B0020F0B557464E46DE4638
:101E30004546E0B506000F0085B0EFF305839946EF
:101E40008B46002B12D0384900204B6ABB4206D388
:101E50008A6ADB1B591E8B41B2424041184305B0D0
:101E6000F0BCBB46B246A946A046F0BD2F4B9A46F1
:101E7000DB68984653461B784046039300F07CF895
:101E80004246039B040004339B009B580D001B1A21
:101E900039003000001BA941894510DC0DD020BF5E
:101EA000214A0020536A5B45D9D3926ADB1B591E35
:101EB0008B41B24240411843D1E78342EFD900F051
:101EC00063F832003B00121A8B41002B1ADB00230F
:101ED0000193174B3200009350463B00FFF72AFE58
:101EE000011E0FDD104B5A6A5A451BD39B6AB34241
:101EF00016D35046FFF776FE0B4A0020536A5B4527
:101F0000ADD3D2E7084A0020536A5B45A7D300202F
:101F1000926ADB1BB24240415A1E934118439EE72E
:101F20005A45E6D120BFE4E700400540FC1F0020F1
:101F300051160010074943684A6A10B5046800202A
:101F4000934206D8896A9B1A5A1E9341A142404186
:101F5000184310BD004005400260436000487047D0
:101F6000351F001010B5024A0248FEF7C1FF10BD30
:101F7000A46A0510FC5400200300416A0A00986A14
:101F8000596A8A42FAD17047034B596A0A00986A23
:101F9000596A9142FAD170470040054070B504007B
:101FA0000D00174A536A1900966A536A8B42FAD198
:101FB0003000190024184D41AB4216D813D0104BF5
:101FC0002A005B6A9D4203D90D494B6A9342FCD3B8
:101FD000934207D10A4A02E0516A994202D1916ABA
:101FE000A142F9D370BDA642E9D9054B5B6A1C003A
:101FF0005A1CEFD0012201246442E5175242E3E764
:1020000000400540064A536A9942FCD807D1044B68
:1020100002E05A6A914202D19A6A9042F9D8704716
:1020200000400540F8B5040006200D0000F078F9E6
:10203000002844D0374B3849E3185A1E9341802278
:10204000120494465B429B0D344A9B056344136023
:10205000334A136018000A689043FBD12D4B314A74
:10206000E31859424B4180215B00490006209952F8
:1020700000F056F92900C00000F0ACFB0130C309A4
:102080001ED1402701226262A362266BF30722D48D
:10209000E36A254B0620E51800232B60266300F039
:1020A0003FF93900800000F095FB7023E26A5A4046
:1020B0000E3313402B601D4B23630323A364F8BD31
:1020C0001B4A93421ED900231A4A1B4F6262A36225
:1020D000266BF307DCD5194B144AE3181A60656ABE
:1020E000A36A0620AD01ED1800F01AF9144900F0BA
:1020F00071FBAD020100280000F06CFB0021FFF72E
:102100004DFFC5E74006800E9F011A003F180300EF
:10211000B9E7C0460080FCBF08C0004000E00040B6
:1021200000F000408C5B00202C1000000103000038
:10213000FEFF0000FFFF0000C0FF3F003030000046
:102140004E0E0000F8B5DE464E4657464546E0B511
:102150008B4605000A991800160000F03BFB0A9B0D
:102160006C001F02324B64199C46A40064446368EF
:1021700081469F4200D967602B1FDBB29846012B36
:1021800030D9C02380229B01E31812011A60294B29
:10219000AD0059599A4600291BD17301E0262268E7
:1021A00053401E40802342465B01E3181E60012A13
:1021B00030D9802380229B01E31812011A60534614
:1021C0004A4667605A51F0BCBB46B246A946A04693
:1021D000F8BD586900F0FEFA013043001B18033BBC
:1021E000FDD2DAE75B46012BCBD1C02303229B0152
:1021F000E3181A60023AA3681A42FCD07301E02681
:102200002268AD0053401E4080230A4A5B0192467B
:10221000E3181E605A462168514003220A401A60A2
:1022200001225B469A40A3681A42FCD0C1E7C0462F
:102230000080004000550020F0B546464F46D64687
:10224000C0B51F00344B44009C462418A4006444CD
:10225000636888461600FF2B02D880235B0063600A
:10226000031FDBB29A46012B30D9C02380229B0189
:10227000E31812011A60294B850059599946002923
:102280001BD17301E026226853401E408023524632
:102290005B01E3181E60012A30D9802380229B0154
:1022A000E31812011A6080235B0063604B465F51A4
:1022B000E0BCBA46B146A846F0BD586900F08AFABB
:1022C000013043001B18033BFDD2DAE74346012BE4
:1022D000CBD1C02303229B01E3181A60023AA36802
:1022E0001A42FCD07301E0262268850053401E404C
:1022F00080230A4A5B019146E3181E60424621682A
:10230000514003220A401A60012342469340A268CA
:102310001342FCD0C1E7C0460080004000550020B9
:10232000014B8000C058704700550020F8B50400EC
:1023300021481E0017000D0000F04CFA0100380083
:1023400000F048FA069B36041B031E432368002B4B
:1023500020DB1A4B1A49E3185A1E9341802292013E
:1023600094465B421B0B174A1B0363441360164AD7
:1023700013601F000A689743FBD1144B2560E218D5
:102380002123A06013602368002BFCDA0823E66099
:102390001360F8BD3F2322681340AB42D9D1A36834
:1023A0001B051B0D8342D4D1EE22E368D2021340F9
:1023B000B342CED1EDE7C046001BB7000040FDBFE1
:1023C00008C0004000E0004000F000400430000081
:1023D00010B580241C4BE4051C6000281AD0012392
:1023E0001A4C18431A4BDC611A4C44401C62596267
:1023F00098628021144BC905196017481749086075
:10240000E021C9041960002A07D18022144B12066A
:102410001A6010BD0E4BD861EBE753019B1A9B006D
:102420009A18802312015B049A4209D213000D49C5
:102430000B60074B5A608022094BD2051A60E8E70F
:10244000094B1A00F3E7C04600B00540D3C007B0FF
:10245000008005402D3FF84FFCFF0100082001409F
:1024600000A0054070590020FFFFFF008023024AB2
:102470009B000B43D362704700800540002310B5DA
:102480000100988A1B8B984710BDC046162310B5D3
:102490000100188802331B88984710BDF8B54746DD
:1024A000CE4680B50F1E18D014239946043304007D
:1024B0000025012698464B461888434621681B880C
:1024C000984701C4431E984101350640AF42F2D1FE
:1024D0003000C0BCB946B046F8BD0126F8E7C0469A
:1024E000002370B504000D00988A05491B8B98479E
:1024F00003000020002C01DB0130A0402900984798
:1025000055420000AA23064A1B0113608D235B007D
:10251000D3600449044B19605368002BFCDA704700
:102520000040024000B0FA00006002407047C04620
:1025300010B50148FEF7C4FCC86A051070B5074D18
:10254000074EB54209D20024013E761BB60808CDDD
:10255000984723000134B342F9D170BD9868051043
:10256000D4680510054B064A06491A60064A074B0F
:102570001A6010000B689843FBD1704700E00040E0
:10258000BFCDFBFE08C00040FE7F3C0000F00040D5
:10259000044BDB6C002B03D18022034BD2021A6068
:1025A0007047C046000011504C201150044A054BA2
:1025B0001A60054A1368DB018033FBD17047C046BF
:1025C000FFFFFF0100F0004008C000404022034B25
:1025D0009A675A671A67DA667047C04600F001408A
:1025E00010B5FEF709FD10BDF8B52749274C284D59
:1025F000641AA6103200302E00D930222800920032
:1026000001F00CFBBC2C3BD830202F232C19640785
:10261000204A801BE40F9B1B052B16D93700002C8A
:1026200002D0B300771CEA50001B33199B0041080D
:10263000EB18C900C9181A605A6008339942FAD1D8
:10264000012303421CD09843C619B300EA50731CFF
:102650002F2E15D09B00EA50B31C2E2E10D09B00BD
:10266000EA50F31C2D2E0BD09B00EA50331D2C2E6C
:1026700006D09B00EA50731D2B2E01D09B00EA5020
:10268000054B9D60F8BDC04600010010C001001060
:1026900000000020C101001000ED00E0002310B593
:1026A000294C82B0A367FFF72DFF0122274B1A6048
:1026B000636C012BFCD10322254B1A60224A936BD9
:1026C000012BFCD1013300930121224A224804331B
:1026D000FFF72CFE052301210093204A2048FFF735
:1026E00025FE0022022104201E4BFFF7A5FD00223B
:1026F000012105201C4BFFF79FFD00220021072030
:102700001A4BFFF799FD002200210820174BFFF715
:1027100093FD8023DB000093002200210920134B4E
:10272000FFF710FD0022104B00210620FFF784FD6B
:102730000420FFF7F5FD0E4900F04CF801000020E1
:10274000FFF794FE02B010BD008000403CB0004096
:1027500030B00040002F685900800240008C86474E
:1027600000C00240001BB70040597307006CDC0238
:1027700040420F0001480421014B1847202000204F
:102780009D240010124A936F9B0815D29066D16663
:10279000002905D0FFE7FFE7FFE7516F106F704793
:1027A00004B580210906C2175140002800D0C84353
:1027B00053F0FAFF002104BDF0B5146E556E576F4B
:1027C000166FFFF7E3FF1466556657671667F0BD8F
:1027D000000000D0114A936F9B0813D21066516617
:1027E000002905D0FFE7FFE7FFE7516F106F704743
:1027F00004B5002801D00020C04353F0D5FF0021CC
:1028000004BDC046F0B5146E556E576F166FFFF7D6
:10281000E5FF1466556657671667F0BD000000D0E7
:1028200094464A4A926F9208624601D228E0C04616
:10283000F0B5464E346E756E776F366F00F020F847
:102840009446424A14665566576716676246F0BD5D
:1028500094463E4A926F9208624601D254E0C046C6
:10286000F0B53A4E346E756E776F366F00F04CF8F7
:102870009446364A14665566576716676246F0BD39
:10288000002B24DB11D000293EDA00B5C9434042B9
:1028900000D1013100F038F8C943404200D1013184
:1028A000DB43524200D1013300BD002AEBD10028A6
:1028B00001D1002905D00020C90FC90701D1C043AB
:1028C000410800B553F040FF0022002300BD00B5D1
:1028D00000290ADBDB43524200D1013300F014F837
:1028E000C943404200D1013100BDC943404200D13B
:1028F0000131DB43524200D1013300F005F8DB43E4
:10290000524200D1013300BD002923D1002B18D140
:10291000002A0CD0BC460D4F38667A660021002391
:10292000FFE7FFE7FFE77A6F386F674670470028D9
:1029300001D00748010000B553F006FF0022002334
:1029400000BD02000B00002000217047000000D0F5
:10295000FFFFFFFF002B00D0BFE0130C28D1002A9F
:10296000E7D080B4114F39667A66FFE7FFE730B4ED
:10297000040C7B6F396F1B0423433B667A66FFE7C9
:10298000FFE7FFE7C04684B27B6F3D6F1B04234324
:102990003B667A66FFE7FFE7C04600232C042D0C58
:1029A0007A6F386F00196941B0BC7047000000D0E1
:1029B000F0B594460025140E01D112020835140F0B
:1029C00001D112010435940F01D192000235D40FC8
:1029D00001D152000135D40B0134254F7C66254CC2
:1029E0003C660E0C93B2FFE7FFE7FFE73C6F6643E0
:1029F000360C7703BE467343DF0B5B04C01AB94144
:102A0000130C7343DB18C91ACE086643360CB64460
:102A100093B273431F0F1B01C01AB941130C7343C8
:102A20001F0B1B05C01AB941860D8F023E4366433A
:102A3000360C092D24DB520A7243801A7703460AAA
:102A40006643360C16235B1BDE40DF40BF1964462D
:102A50006643821B7046043506330100D940A84006
:102A6000C01900D30131A24206D20023F0BD0000FC
:102A7000000000D0FFFFFFFF121B0130F3D3F1E78E
:102A800009277F1BFE406446A2B27243801A00D21F
:102A90000139220C7243130C1204821A99410B0063
:102AA0007046043513370100F940A840801900D35F
:102AB0000131002B02D1A2420AD2F0BD013000D375
:102AC0000131121BFAD2013BF8D1A24200D2F0BD73
:102AD000013000D30131121BF7E7F0B51C0C00D018
:102AE00080E00CB400251C0A04D11B02160E3343EF
:102AF000120208351C0B04D11B01160F33431201BF
:102B000004359C0B04D19B00960F33439200023591
:102B1000DC0B02D192185B4101351C00971864410F
:102B20000134464F7C66464C3C660E0CFFE7FFE7DF
:102B3000FFE7C0463C6F6643360C7703BE4697B24C
:102B40007743C01B00D20139C01B00D201399FB2AC
:102B50007743C91BC91B170C77437E04FF0B801BEF
:102B6000B941CE086643360C0C2D33DBB644120B4C
:102B70001F053A431B0B97B27743C01B00D20139A4
:102B80009FB27743C91B170C77433E043F0C801B51
:102B9000B941860D8F023E43664329277F1BFE40C5
:102BA0000C3D7746AF40BF1930BCA2B2ABB2724306
:102BB0007343801A9941220C7243130C1204801A39
:102BC000994102000B000137001BA941F9D2781E80
:102BD0000021F0BD0C277F1BFE4077467F0BAF40E6
:102BE000FF19E0E700245D1C07D0144F7D663966AD
:102BF000FFE7FFE7FFE7FFE73C6F95B29EB2654353
:102C00006643401BB141150C1E0C654366433604F8
:102C10002F0C3E432D04401BB141994204D20200C7
:102C20000B0020000021F0BD01D19042F7D3801AA3
:102C3000994101349942F2D3F6E70000000000D038
:102C4000FFFFFFFF44464D4656465F46F0B47047CF
:102C5000F0BCA046A946B246BB467047484041403A
:102C6000484018B41B4B5B68FC46019308BD04DF69
:102C7000B72F001018B4174B1B68FC46019308BD12
:102C800000DFC12F00109446134A926F920809D2B8
:102C9000624618B40F4BDB68FC46019308BD0CDF9D
:102CA000793200100C4AF0B5146E556E576F166FDE
:102CB0006246FFF7EEFF084A1466556657671667C7
:102CC000F0BD18B4034B9B68FC46019308BD08DFB8
:102CD0001D31001070350020000000D0FFB55040BD
:102CE0004240504059404B40594000E0FFB5154F1D
:102CF0004C00640D03D0BC4204D10C0314D8002056
:102D0000090D09055C00640D03D0BC4204D11C030D
:102D10000AD800221B0D1B0501264B4009D44B404D
:102D200003D58B4200D18242FFBD9942FCD1904233
:102D3000FFBD0B43DB1803431343F5D0C9434918C8
:102D4000FFBD0000FF07000000B5FFF7CFFF01D077
:102D5000002000BD012000BD00B5FFF7C7FF804186
:102D600000BDC04600B5FFF7C1FF01D9002000BD7E
:102D7000012000BD00B5FFF7B1FF01D9002000BD63
:102D8000012000BD00B5FFF7A9FF804100BD012073
:102D900040054A00121804D85A00121801D8002021
:102DA00070470120704700000021002805D17047BE
:102DB000C1174840401AFAD0C90713B5064B1B6823
:102DC00098470CBC441CA2401005120B0349091B78
:102DD00009051943114310BD7C5B00201F0400004E
:102DE00010B54C00620D8023D218DB00D21A5B05AF
:102DF0007E2A10DD9E3A13DACC17090349081943DD
:102E00005242D140640001341532202A05DAD04004
:102E10000843604310BD002010BD0846604310BD4C
:102E2000C80FC018013810BD18B4044B5B6AFC46CB
:102E3000019308BD24DFAD34001000007035002080
:102E400018B4044BDB6DFC46019308BD5CDFB9355B
:102E50000010000070350020C94211D300B54900B0
:102E60004908002200F018F8002904D4002240424A
:102E70008A41114600BD80210906002000BD0000E6
:102E800018B4044BDB6EFC46019308BD6CDFBB3409
:102E9000001000007035002018B4044B9B6FFC46F6
:102EA000019308BD78DFD734001000007035002092
:102EB00018B4044BDB6FFC46019308BD7CDF45353D
:102EC000001000007035002018B4044B9B6DFC46C8
:102ED000019308BD58DFC93700100000703500208D
:102EE000132370B51D78012D19D014DD1F48FFF78D
:102EF000CDFA06001E48FFF7C9FA1E4C80223100A9
:102F0000200000F08BFE022D2DD01B48FFF7B6FAF3
:102F10001A4B186070BD1A4B164CA364F5E7184B9A
:102F2000144C23606360A360E36023616361A36169
:102F3000E36123626362A362E36223636363A36367
:102F4000E36323646364A364E36423656365A36547
:102F5000E36523666366A366E36623676367A36727
:102F6000E367A364D1E7064BA364CEE753440000B4
:102F700053460000703500204C3300007C5B00207D
:102F8000852F001007B5604601880A0A0230DF2A43
:102F9000FAD1C9B2820804D30288408800041043E1
:102FA00000E00068014A5050039007BD70350020D2
:102FB0000FB403BC0CBCF0B50124E407634000E08F
:102FC000F0B50C0DCF0F661E3605891B640503D3C3
:102FD000C943404200D30131640D03D0661CF60A98
:102FE00007D0E41B00207F00791C89078912803CF0
:102FF00024031D0DDF0F6E1E36059B1B6D0503D3CD
:10300000DB43524200D301336D0D03D06E1CF60A30
:1030100007D0ED1B00227F007B1C9B079B12803D8D
:103020002D032F1B661B58D4A446202E46DA2037CA
:103030001400BC401D00BD40F24033412A438018BB
:103040005941CB0F05D0C943C043002264425041CF
:10305000514162464D0D28D10D0D07D100281FD0DA
:10306000241940414941013A0D0DF9D0640006D3BD
:10307000013000D30131002C01D140084000013A59
:103080000BD4941CE40A04D112051144DB07194443
:10309000F0BDD907204B194300E0D9070020F0BD4F
:1030A0000029DDD1002CDBD1F0BD0132C60740087C
:1030B000CD0728434908002EE1D0D9E73C2E29DA74
:1030C000203E40371400BC4000D00124F24014439D
:1030D0001A00BB401C43D317ACE7AC46202F08DADC
:1030E00020360400B4400D00B540F8403941284373
:1030F000A5E73C2F0CDA203F40360400B44000D056
:103100000124F84004430800B1400C43C117EAE72A
:1031100010001900002494E70000F07FF0B50C0DBA
:10312000661E3605891BE60A6405640D02D0651C1F
:10313000ED0A04D0002001210905803C2403A446A7
:103140001C0D671E3F05DB1BE70A6405640D02D0FA
:10315000651CED0A04D0002201231B05803C2403DA
:103160007740644497B484B296B27443070C7E43AC
:10317000150C6F4380B26843361802D30120000457
:103180003F183004350C00197D41844688B29AB24C
:1031900050430C0C62431F0C7C438EB27E43921949
:1031A00002D301263604A4191604170C36186741F9
:1031B00001BC81B29AB25143040C62431B0C5C43C4
:1031C00080B25843121802D30120000424181004BE
:1031D000130C401863412D185E410020474106BC86
:1031E00088B293B258430C0C6343120C544389B217
:1031F00051435B1802D301210904641819041A0C05
:10320000091862416D1856410020474118BCF90267
:10321000720D1143F0026A0D1043ED020A0D03D145
:103220006D1940414941013B124E9B1B7600B34250
:103230000ED26D0007D3013000267141664635433A
:1032400001D1400840001B05C918E4072144F0BD26
:103250000BDA013306D1013004D101314F0D01D019
:103260004908F2E7E1070020F0BD013631050020F2
:10327000EBE70000FF030000F0B51C0D671E3F05E3
:10328000DB1BE70A6405640D02D0661CF60A04D055
:10329000002201231B05803C2403D0252D06002697
:1032A000F6432E661E096E66CE0FF619B446490027
:1032B0004F0D02D07E1CF60A03D000200021403FB3
:1032C0003F033E1BB600B444013F7F05C91B4908BC
:1032D0002E6F013676089C02950D25437543ED133C
:1032E0007543AD1301356D10F603761B0CB4CC029B
:1032F000450D2C43A2B2B3B25A43270C7B43350C85
:103300006F43A4B26C431B1902D3012424043F1958
:103310001C041D0CA4187D4124196D41009A91B222
:10332000ACB26143170C7C432B0C5F4392B25A43FF
:10333000A41802D301221204BF182204230C52182D
:103340007B41019C6C431B19520ED9010A43440175
:10335000A01A81B2B2B2514303145A43360C7343DC
:1033600087B27743D617D21900277E4136049B19BE
:103370001704160C7F185E417316ED18F301002632
:1033800080337541A90F06D16400690AE8055B0A1C
:10339000184309D22FE00422944480337541A90ACE
:1033A000A8059B0A184326D3404149412404009AAA
:1033B000019B0D005543641B4343E41A95B286B24A
:1033C0007543170C7E43030C5F4392B25A43B61801
:1033D00002D301221204BF183204330C52197B416C
:1033E00052429C41002C02D400220130514140083D
:1033F000CA071043490802B06246D7079210084B2B
:10340000D218084B9A4203D212058918C919F0BD87
:103410000020002A01DC3900F0BD01331905F5E771
:10342000FD030000FE070000624618CA94465A4693
:10343000002A20DB04E0624618CA944600291ADA02
:10344000C01861415B463B415C46B4405246FA407D
:10345000224344464D4662416B41904699462B4675
:10346000B3403D41FC401C4352465B46A241AB4148
:1034700092469B467047C01AA1414B463B414C4681
:10348000B4404246FA40224354465D4662416B4195
:1034900092469B462B46B3403D41FC401C4342466E
:1034A0004B46A241AB41904699467047002200B579
:1034B000203200F010F8080000BD002200B500F036
:1034C0000CF8CA179A4200D100BDD8430121C907A0
:1034D000414000BD00220B150AD410B5944600F0FF
:1034E000A7F81414013400DA0021CB17144C20473C
:1034F0000020002170476244343A0CD40C2A07DAC9
:1035000004009140904052422032D440214310BDEB
:10351000D843D94310BD203207D40C4694405242C0
:1035200020321141D040204310BD0800C91720327D
:1035300003D452422032104110BD1800190010BDB2
:10354000F73400104A00520D144BD21A13DDFF2A33
:103550001EDAD205CB0FDB071A43C300400F090365
:10356000490A084310435B0001D301D00130704782
:103570004308FBD2704702D0C80FC00770470A0348
:1035800012130132F8D1420F072AF5D1012200E0CF
:10359000FF22C80F00028018C0057047800300009A
:1035A00000210A00002104E000210A00C11704E004
:1035B0000022002306E0C0460022CB1758405940A5
:1035C000C01A994130B5184CA21A002903D1010044
:1035D00010D00020203A4C1512D104D2013A001824
:1035E00049414C0DFAD3114CA24204D2120589185C
:1035F000DB07C91830BDD243520D00200021F5E78A
:1036000003D4013A00184941FBD50B324405C00AE6
:103610004D052843C90A640003D00024604161417C
:10362000E1E7E0D34408F8E732040000FE070000B9
:103630000A0DCC0F531E1B05C91A520503D3C943EB
:10364000404200D30131520D03D0531CDB0A07D096
:10365000121B00206400611C89078912803A120342
:10366000014BD21A70470000FF030000023225D43C
:103670000C2A1CDA1125AD1A0B002B410832073534
:103680000600EE40904091403143F0CC63431A1560
:1036900000235A41554356435743BF02F41276055F
:1036A00076196741ED177F19801BB94170470C22CD
:1036B0000020C917490001310905DBE70902030EA3
:1036C000194300025342203208D40C00194194409F
:1036D000D840204300225041514170470800C9178B
:1036E000203B2032F1D5002000210022704700004D
:1036F00000B5FFF79DFF30A4FFF7B8FF00242C4D65
:103700002C4ED20702D3F6436D426641520004D2DA
:10371000A246A346A846B14603E0A046A146AA4653
:10372000B3466EA4A44601271F26FFF784FE013787
:10373000013E212FF9D100BD594684B28DB26C43B0
:10374000061475430B145E4382B25A43AD18EA1750
:1037500000D7D2431204B6182A042B0C1219734155
:10376000404649469D009B17920F2A43904199413C
:103770003E2222E7494684B28DB26C43061475435B
:103780000B145E4382B25A43AD18EA1700D7D243F6
:103790001204B6182A042B0C1219734150465946CC
:1037A0009D009B17920F2A43504159413E2204E746
:1037B000BB4DF09DC556F6367D5100001A611400D0
:1037C00085880A00FB211900F0B5FFF73BFA404D50
:1037D0000C002C4001D0AC4202D1090D090500209B
:1037E0001C002C4001D0AC4202D11B0D1B05002255
:1037F0000026ED02002B04D502266B40694000D460
:1038000076424F1904D599420CDD0136694003E038
:10381000BB4207DA013E6B40070010003A000F0080
:1038200019003B0040B4002A0FD1002B0AD05C00E5
:103830006415013409D14C006415013402D10139F9
:10384000013B02E0002000212EE0FFF715FD3E22A3
:10385000FFF734FE82468B4600200021804601227D
:10386000920791461DA4A44601271F26FFF7DCFD01
:103870000137013E212FF9D14A4653460C3A012423
:103880006407002752081B0005D4934100197941B1
:103890006408F7D104E05341001BB9416408F1D139
:1038A000CE0749104008304340BC002E0AD0094CD6
:1038B000094D01D5E443ED43F60701D100196941F3
:1038C000001969413D22FFF778FEFFF7C1F9F0BD0D
:1038D0000000F07F8D305A88A8F64332694FBB61F3
:1038E0000567AC1DB16E4096FCBAAD0F72DB0BAB39
:1038F000A66EF50739BD9FE576ABFE034B6297BA1E
:103900005BD5FF01D694DBDDAAFAFF005DEAEE5637
:1039100055FF7F006E77B7AAEAFF3F00BCBB555545
:10392000FDFF1F00DEADAAAAFFFF0F006F5555F582
:10393000FFFF0700ABAAAAFEFFFF03005555D5FF06
:10394000FFFF0100ABAAFAFFFFFF00005555FFFF84
:10395000FF7F0000ABEAFFFFFF3F000055FDFFFFC8
:10396000FF1F0000ABFFFFFFFF0F0000F5FFFFFF91
:10397000FF070000FFFFFFFFFF0300000000000043
:103980000002000000000000000100000000000034
:103990008000000000000000400000000000000067
:1039A00020000000000000001000000000000000E7
:1039B00008000000000000000400000000000000FB
:1039C0000200000000000000010000000000008074
:1039D000000000000000004000000000514343438D
:1039E000C9188C46110C83B24B4310B4040C6143CC
:1039F00092B280B2504362431C041B0C001910BCED
:103A000059411304120CC018514161447047000021
:103A100007B548404140484001E0C04607B5420074
:103A2000120E03D0FF2A03D1420218D8C00DC005E0
:103A30004A00120E03D0FF2A03D14A020FD8C90D43
:103A4000C9050122414005D4414001D5814207BD4D
:103A5000884207BD0143491801D0C043001807BD83
:103A600000B5FFF7DBFF01D0002000BD012000BD45
:103A700000B5FFF7D3FF01D9002000BD012000BD34
:103A800001231B064200D21804D84A00D21801D8DC
:103A90000020704701207047C10FC90700D5404280
:103AA000002817D0F44603B40B4B1B68984706BC9C
:103AB00081409E384042803107D20B0607D0490032
:103AC000490AC0051043084360470130F8E7490A36
:103AD0008902F5E7704700007C5B0020034BDB6F39
:103AE000FC4618477CDF813B001000007036002048
:103AF000132310B512481C78FEF7C8FC0100012CF6
:103B00000AD003DD80220F4800F088F80E48FEF747
:103B1000B5FC0E4B186010BD0A4C5422200000F07A
:103B20007DF80B4B6365A365E36523666366A36657
:103B3000E36623676367A367E3672362E361E5E7FF
:103B400053460000703600204C3300007C5B0020A0
:103B5000553B001007B5604601880A0A0230DF2A8B
:103B6000FAD1C9B2820804D3028840880004104305
:103B700000E00068014A5050039007BD70360020F5
:103B8000C30FDB0741000A0E07D0FF2A08D009093E
:103B9000054A8918194340077047190000207047EB
:103BA0000249C918FAE70000000000380000F07F61
:103BB00010B5040041F098F8002804D0034B041914
:103BC0009C4200D810BD0248FDF77AF9000004209D
:103BD000D46A051010B50C0041F068FC002804D030
:103BE000034B04199C4200D810BD0248FDF768F948
:103BF00000000420D46A051010B541F07FF810BD14
:103C000001480421014B1847302000209D2400105A
:103C1000014B1B681847000030200020014B5B68F7
:103C2000184700003020002010B5FFF7C1FF10BD7D
:103C300010B5FFF7BDFF10BD10B5FFF7DDFF10BDDC
:103C400010B5FFF7D9FF10BD10B5FFF7D5FF10BDB8
:103C50009A4200D2885470477047C046F8B557461C
:103C6000DE464E464546E0B599460A9B07009A4611
:103C70000D9B884693460B9C9B073BD10C9B9C421B
:103C80003DD21E1B0B9415000C005E442A004B46CF
:103C9000013521002020B847B542F7D1A0460B9C42
:103CA000002C20D0454636195346321B013C185D86
:103CB00029004B46B847002CF6D12B00350098461A
:103CC0000D9B9B070FD55B46EC1A0C9BA3420AD9B0
:103CD000464698462A004B46310020200134B8471A
:103CE00001354445F6D32800F0BCBB46B246A94690
:103CF000A046F8BD16001500002CD3D1E0E7160051
:103D00001500002CCED1EEE7F0B54546DE4657460D
:103D10004E46E0B585B09C4610AB1B78149F934689
:103D200098460F9C129E139DBB074CD4002D42D188
:103D3000B44248D201233B4099460E9B013B9A4630
:103D4000302304E0524601341355A64201D9202CF9
:103D5000F8D14B46002B00D183E00E9B013B9946E6
:103D60003023A54205D82EE04A4601341355AC4213
:103D700029D0202CF8D1FB060CD57B0554D4A642C3
:103D800063D0A54261D0119B102B50D0022B57D08D
:103D9000202C32D1202301930E9B5A460093039787
:103DA00063460295FFF75AFF05B0F0BCBB46B2462A
:103DB000A946A046F0BD01233B40994601233B4262
:103DC0002AD1B442B9D3FB061CD57B05DBD4002C29
:103DD000D5D1119B102B5BD0119B022B6BD03023C4
:103DE00001240E9A13704346002B10D17B073ED559
:103DF0002B260E9A631C1655CDE72300013430267E
:103E00000E9AD654202CC5D04346002BEED02D263A
:103E10000E9A631C1655BEE74346002B2FD0013D7A
:103E2000B44200D289E798E7119B102BB2D1BB06B0
:103E300037D5202CAED058230E9A13550134A7E75E
:103E4000202CA7D02300013407E0631E012CC0D032
:103E5000119A102A31D0022AD1D162260E9AD65454
:103E600096E7FB06CED57B0500D488E78BE72300D9
:103E70003E0790D520260E9A013316558BE70C236A
:103E80003B405A1E9341ED1AB44200D255E764E715
:103E9000BB060ED478230E9A02241370302353707D
:103EA000A1E7202C00D175E778230E9A1355013431
:103EB0006EE75823EFE76033EDE70E9AA61E9146B2
:103EC0004E44BA0602D55822327098E778223270F2
:103ED00095E7C04610B5002800D110BD01F02EFDB9
:103EE000FBE7C046F0B55746DE464E464546E0B5D0
:103EF00095B083460F00924698461E9A1F9B10006D
:103F00001900209EFEF743FF002800D0EAE11E982A
:103F10001F990122C54B5242FEF71EFF002800D018
:103F200014E11E981F990122C14B5242FEF72AFF4D
:103F3000002800D0E9E01E981F990022BD4BFEF733
:103F400021FF002800D0C8E01E981F990022BA4B1C
:103F5000FEF702FF002800D0BFE01E981F99002244
:103F60000023FEF7F9FE002800D0E4E000230B93C5
:103F7000229B5B0500D406260024302307E017218E
:103F800006AA013452181355013E202C01D0092EE7
:103F9000F5D81E981F99FEF723FFA84BF2009B1837
:103FA0001A685B68050008920993FEF701FF02009A
:103FB0000B001E981F99FEF754FE089A099BFEF706
:103FC00080FE06900791FEF72FFF8146FEF7ECFE7C
:103FD00002000B0006980799FEF743FE0022984B5B
:103FE00006900791FEF7CEFE002800D10DE10123D7
:103FF0009C46E1444846FEF7D7FE02000B000898B5
:104000000999FEF7AFFE002802D00023994601353A
:10401000002E00D1D9E006954D46B94614E006AA17
:10402000944617230A216344280001341F19FEF720
:10403000D1FB3031397028000A21013EFEF7CAFB5E
:10404000092D00D817E10500202CE8D14F46069D28
:1040500020240CAE06AA17239446634499465B4677
:10406000B34606930FE04B4628000A210134E618B8
:10407000FEF788FB3031280031700A21FEF782FB01
:10408000051E00D1E4E0202CEDD1069B5E469B4648
:104090000323229A1340012B18D1219B002B15D00A
:1040A0000B9B002B00D1FDE0219B013B2193202B9A
:1040B0000CD93023219A07E0172006A901340918EA
:1040C0000B55944200D3CCE0202CF5D1229B0194D7
:1040D0000393219B0096029322E0229B5246049375
:1040E000219B3900039358461E9B1F9C0296009308
:1040F0000194434600F04AF90400200015B0F0BCDA
:10410000BB46B246A946A046F0BD229B5B070FD432
:1041100003224C4B22990192039121990093029121
:104120004346524639005846FFF798FD0400E4E73D
:104130000422454BEEE71E9A1F9B00200021FEF74C
:1041400090FD01231E901F910B9311E7229B544673
:104150009B0711D1219B042B0ED9219B55469C46D0
:104160005E46043C64442A00434601353900202061
:10417000B047A542F7D1B346344D26002B1F9946D0
:104180005B46A3461C003200E87843463900013DF7
:10419000A04701364D45F6D123005C469B46229B45
:1041A00004349B07A9D55346219AE31A9A42A4D90D
:1041B0005E4615002200434639002020B047534692
:1041C0000134E31A9D42F5D897E72800FEF7F0FD89
:1041D00002000B001E981F99FEF743FD0022184BAA
:1041E00006900791FEF7B8FD0CAE002800D031E72D
:1041F000069807990022124BFEF7C4FD002800D054
:1042000028E7012301359D4324E7002206980799FA
:104210000B4BFEF7A1FD002800D0F9E64B46002B22
:104220005CD101239C46E144F2E6C046FFFFEFFF6C
:10423000FFFFEF7F65CDCD4165CDCDC15089051024
:104240000000E03F386B0510306B0510406B051027
:10425000069B5E469B460323229A1340012B00D106
:1042600081E0202C00D131E70B9B002B27D02D23A0
:10427000335501342AE74F46069D202C00D1E7E64E
:104280003022331907E0172006A9013409180A550E
:10429000202C00D1DCE6A342F5D12E220CAE013455
:1042A000F254D7E60C23229A134257D0219B013BAC
:1042B0002193A34200D9FCE6202C00D106E7229BE3
:1042C0005B0703D52B2333550134FFE6229B1B07E5
:1042D00000D4FBE6202333550134F7E6DB0700D496
:1042E00096E69EE7229B55469B0711D1219B032B07
:1042F0000ED9219B54469C465E46033D65442200F0
:104300004346013439002020B047AC42F7D1B346D0
:10431000B9465F461C4EEC1C2A00B078434649461D
:104320000135B847013EAC42F6D1229BBB464F4611
:104330009B0700D4E1E65346219AE31A9A4200D83B
:10434000DBE65E4615002200434639002020B047D8
:1043500053460134E31AAB42F5D3CEE6219BA34288
:1043600000D9A6E6B2E6219B002B00D179E70B9B92
:10437000002B97D0219B013B21939C4200D298E6D1
:10438000202C00D073E7A1E63C6B0510F0B5DE46AB
:1043900057464E464546E0B599B081468B46924613
:1043A0009846229A239B10001900FEF7F0FC002883
:1043B00000D0CAE0229823990122824B5242FEF794
:1043C000E1FC002800D0C0E02298239901227E4B16
:1043D0005242FEF7C1FC002800D0B6E02298239993
:1043E00000220023FEF7B8FC002800D0C9E1229B80
:1043F000239C08930994089809998023269ADB0046
:104400001A400D928022269C1201144022000B9427
:10441000269C07000E001C4200D0ADE00B000343B9
:1044200000D0D5E0002A00D00AE22200063324930F
:10443000022313400C930223134200D002E2259B77
:10444000042B00D20FE2043B0B93002304250A93B4
:104450000022229823990023FEF77EFC002800D03A
:1044600003E25A4B269A134004930B9B0393249B1D
:104470000293089B099C0093019459464346524677
:104480004846FFF72FFD02002020269B1F270340F0
:1044900059424B415B421840531C089359464346CE
:1044A0004530C8470A9AD317D4185C40D30F0A93F3
:1044B0006B1E0B9308AB9C460025674401E0202D42
:1044C0000FD020000A21FEF785F901357E19303121
:1044D000317020000A21FEF77DF926000400092E24
:1044E000EDD8052306930B9B5946059300230493AF
:1044F0000A3303930A9B4846029310AB0093089A31
:1045000043460195FFF700FC0C9B002B2DD0534632
:10451000C41A259BA34228D94D465F4681461E00FA
:10452000534639001A19202043460134A847A642B1
:10453000F6D8534648462599C21A013200239142C3
:1045400000D386E1013018180FE0269B0493259BC9
:104550000393249B0293229B239C00930194434644
:10456000524659464846FFF7BDFC19B0F0BCBB4661
:10457000B246A946A046F0BD01432BD10B9B2200B9
:10458000002B00D154E700230A93249B0A9A0024AD
:10459000934200DD85E12298239900220023FEF753
:1045A000DBFB002800D035E1269B084A02941A4024
:1045B0008023DB0013430493259B0393089B099CF2
:1045C000CBE7C046FFFFEF7FFFFFEFFFFFF7FFFFE7
:1045D00006232493B44B70009C46400D6044FEF7C4
:1045E000E7FBB24AB24BFEF76CFBB24AB24BFEF7A6
:1045F00041FB3603B14B360B334304000D0038004A
:1046000019000022AE4BFEF72CFBAE4AAE4BFEF774
:1046100058FB02000B0020002900FEF72BFBFEF7E1
:10462000DFFB0A90FEF7C4FBA84AA94B04000D006B
:10463000FEF747FB0022A74BFEF71CFBFEF7D0FB63
:10464000A54A0600A54B20002900FEF73AFB04000E
:1046500030000D000C96FEF7ABFBA14AA14BFEF714
:1046600030FB02000B0020002900FEF7FAFA0200DE
:104670000B0006000F00FEF724FB320004000D00C3
:104680003B0030003900FEF7F5FA00220E900F9142
:10469000954B20002900FEF7F6FA0022934BFEF717
:1046A000E9FA02000B0020002900FEF7ECFA0022D4
:1046B0008F4BFEF7DFFA02000B0020002900FEF707
:1046C000E2FA0D008021040032003B000020C90501
:1046D000FEF7C7FA02000B0020002900FEF7CAFA15
:1046E00002000B000E980F99FEF7CDFA0022734BD3
:1046F000FEF7C0FA7F4B0C9C9C46644400222305C5
:10470000FEF7DFFA06000F0002000B000898099977
:10471000FEF722FB00280AD00A9B3000013B39003B
:104720000A930022714BFEF7AEFA06000F000A9AB8
:10473000330063323900C62A12D802222698042593
:1047400010400B9A0C90002A25D1259B042B05D9EB
:10475000002800D0A1E0259B043B0B93042541E0F9
:104760000222269810400B9A0C90002A12D1259B09
:10477000052B76D9002872D1259B0525053B0B9387
:1047800034E0802212069446229B0893239B6344C4
:10479000099330E605250B4300D1F6E60898099900
:1047A000554A564BFEF7E6FA002808D008980999B2
:1047B0000022534BFEF7D0FA002800D0E5E6249BF8
:1047C000002B1CD00D9B002B19D0249B013B249364
:1047D000259BAB4204D90C9B002B5AD002230C938F
:1047E00000230B930A9B002B00D131E6089809990E
:1047F00032003B00FEF747FA0890099128E6259B16
:10480000AB42EDD90C9B002B43D000230B9302331A
:104810000C93E7E78020269B3A4A00061A40802343
:1048200084460294089C099D2900DB0013430493ED
:10483000259B6144220003930B00009201938EE6B6
:104840000524A8E600230B930A93023304250C9356
:10485000FEE553468C46013B63441B1A72E6022375
:104860000C930525C2E70423EDE58020089E099FEF
:10487000000639008446269A224B61441340049373
:104880000B9B32000393249B02930B000092019335
:10489000F3E5259B5B1B0B93A4E7022304250C93F4
:1048A000A0E79C1A013C76E601FCFFFFFB799F50D4
:1048B0001344D33FB3C8608B288AC63F0000F03F43
:1048C0000000F83F61436F63A787D23F71A3790966
:1048D0004F930A400000E03F1655B5BBB16B024054
:1048E000EF39FAFE422EE63F00002C400000244043
:1048F00000001840FF0300002D431CEBE2361A3F76
:1049000080842E41FFF7FFFFF0B5DE4657464E4646
:104910004546E0B5A5B01E002E9B92460C93CD4AAD
:10492000CD4B80468B461A60002900D1EAE1002376
:1049300030789946002800D1ECE1C84B4C460B93E7
:10494000C74B454657460E930AE0631C9846220023
:104950003B005946A84744463078002800D187E0FC
:1049600001362528F1D108239A46043B9946023B9B
:104970009846013B00229C460D943078711C030040
:10498000203BDBB2102B03D80B9C9B00E3589F46C7
:104990000300303B89460D9C092B3AD900239846E9
:1049A0002A2800D1C1E000239A462E284BD00300CC
:1049B000683BDBB2122B1ED80E999B00CB589F464A
:1049C00063460E001A43D8E743460E001A43D4E765
:1049D0004B460E001A43D0E710230E001A43CCE7D3
:1049E00053460E001A43C8E780235B001A43FF3B7F
:1049F0009C467078E1444E4667284FD82428A4D9B5
:104A00000300253BDBB2422B9FD896499B00CB5835
:104A10009F46002394461E0000E00131B3009B191D
:104A20005B001E180878303E0300303B092BF4D998
:104A30000123624689469C460023B0469A460E00F2
:104A4000E1442E28B3D13021802049428C46C00059
:104A5000024370784B4684446146092900D86CE1D2
:104A60002A2800D17AE101239C464E46E1449EE784
:104A7000A146A846BA46CA4503D801235B4253441F
:104A8000994653464A4659460020C047200025B063
:104A9000F0BCBB46B246A946A046F0BD0300693B48
:104AA000DBB20D930F2B00D94FE7012199408C46C3
:104AB0006D49894661464B4619400F916346494608
:104AC0000B4200D028E10D9B0A2B3AD0072B00D0D7
:104AD0003BE70C9B190008C98846002B00D14BE12D
:104AE00021200243914614A98C461F220F216244C3
:104AF0008C4651460D950C91A24615000F9902E087
:104B000020290CD0130064461C4020003730092CAB
:104B100000D80738013168541A090F2BF0D80C9BC4
:104B200054460D9D9A460F9133E10C9B02CB88466B
:104B3000002947DB0C9301239C4670784E46E144E4
:104B400031E70C9B02CB14935346002B00D138E184
:104B50009C4608780B000C908C44002801D100F092
:104B600098FC89466146944603E05A780133002A4E
:104B700001D08B42F9D1494662465B1A0C900F93E3
:104B8000530500D520E10223180010400D90134278
:104B900000D1CBE30D930B1BB1469A465E460C98B1
:104BA00022003B003100A84753460134185D00281D
:104BB000F6D1B3464E460D9B002B00D0C7E1149BA7
:104BC0000C93C9E60C9301239C46283849420243C2
:104BD000884670784E46E144E5E670786C2800D14E
:104BE0007FE180235B001A43FF3B9C46E14402E7E0
:104BF00080239B001A4301239C467078E144FAE627
:104C00007078682800D173E180231A437F3B9C466B
:104C1000E144F0E6672800D103E1472800D15AE1DA
:104C2000452800D15AE10492072142460C9B039289
:104C3000073352468B43190002920CC92800009298
:104C400001930C9122003B005946FFF79FFB0400A3
:104C500082E6C046094900106C590020B087051053
:104C6000F48705104088051041900000462800D1C7
:104C7000DBE00492072142460C9B03920733524625
:104C80008B43190002920CC92800009201930C91E9
:104C900022003B005946FFF725F904005CE6631C3F
:104CA000984622003B0059462520A847444653E633
:104CB0000C9B04330D93631C9946920700D422E1A8
:104CC0000C9B2200187859463B00A84743464444B1
:104CD000012B00D885E23300B8462E005F46250040
:104CE0004C46994622004346013439002020B04703
:104CF000AC42F7D12C00BB46350047464E460D9BD3
:104D00000C9329E6DB4B307898460023994600281F
:104D100000D012E60024AEE66F2800D188E000D86B
:104D20000BE31023782800D1CFE09A430A239C4656
:104D300000230F930A330D9380E05646B100891982
:104D4000490001330E181878303E01003039092926
:104D5000F4D9B2461E000133994628E60C9B023670
:104D600002CB8A46C9435046C917084082460C9375
:104D70003078731C99461AE61023100098431133BB
:104D80001843814680201300C0000340024200D136
:104D9000A9E64B4606930823059353460493102334
:104DA0000393002302930F9B220001931CAB0093FB
:104DB00059463B002800FEF7A7FF434604000C932A
:104DC000CAE501235B42C3E60F9B534501D9534615
:104DD0000F930223180010400D90134200D1B7E149
:104DE0000D93D1460B1B9A463300A1442E0022009E
:104DF0004D460C98B9465F469B4608E04B46390045
:104E0000541CB0475346185D002877D022009542C5
:104E1000F4D15B46BB464F46A94635004C461E00C2
:104E2000C9E680231B011A43FDE620231A4320E72D
:104E300008239C4600230F9308330D938023110011
:104E4000DB0019401A4200D116E10D239A431000ED
:104E5000802302009B001A401492184200D0C2E145
:104E6000802302005B001A4091460C9A04320F9294
:104E7000184200D0B7E2430600D59FE1030600D4F4
:104E800019E30C9B1B880993002B00D0FCE1103325
:104E90009843002900D1F7E1002399464346059342
:104EA000534604930D9B069003930023D2E05828A9
:104EB00008D0622867D102239C4600230F93023357
:104EC0000D93BBE720231A43103B9C4600230F930E
:104ED00010330D93B2E780231B011A4320231A439A
:104EE000A1E6C0239B001A43F31C9946B07882E5E3
:104EF000C0231A43F31C9946B0787CE535005E4622
:104F0000BB464F4657E64346012B00D863E1631E7C
:104F100043449A463300B9462E005F4655469B46A9
:104F2000A24622004B46013439002020B047AC4253
:104F3000F7D135005E46BB464F46A14654460C9B12
:104F40004A46187859463B004444A847D7E6A1464C
:104F50000F9B984500D832E64444E41A3300B84623
:104F60002E005F4625004C469946220043460134F8
:104F700039002020B047AC42F7D12C00BB463500A9
:104F800047464E461BE680231000DB0018401A42BD
:104F900000D10FE1112118008A430D920D9A802350
:104FA00011009B0019408C461A4269D180231100E0
:104FB0005B00194089460C9904310F911A4200D0C8
:104FC000CAE113005B0600D5F0E013001B0600D415
:104FD00059E20C9B00229B5ED9175A184A4092B2A4
:104FE000D90F0C91002B00D1F9E1100014AA9446BE
:104FF00042461F23149252466344A84616944D46D7
:105000000400B946B2461F00159201E0202D0FD0D2
:1050100020000A21FDF7DEFB01357E1930313170A9
:1050200020000A21FDF7D6FB26000400092EEDD84A
:10503000149B4F46A94645469846159B56469A46A8
:10504000169C0D9B069343460593534604930A23EF
:1050500003930C9B02934B4601931CAB22000093DD
:1050600059463B002800FEF74FFE0F9B04000C93AF
:1050700072E4C046593C00100C239A431000E7E646
:1050800007220C9B07339343013294469C446246AB
:105090000C920CCBD90F0F911100194300D191E064
:1050A000D9171391129151401091139959401191B0
:1050B00010981199129A139B801A9941109011918E
:1050C00014AA0023944642469946149252461F332E
:1050D0006344A846B24616944E46109C119DB946AC
:1050E00015921F0001E0202E10D0200029000A2276
:1050F0000023FDF7ADFB013630322B00BA550D0011
:1051000022000400002BEED1092AECD8149B109445
:10511000119545469846159B4F46B14656469A46C8
:10512000169C0D9B069343460593534604930A230E
:1051300003930F9B02934B4601931CAB22000093F9
:1051400059463B002800FEF7DFFD0400FFF704FC92
:105150000F9B984500D8C1E18023DB000D934346A7
:105160000F9A1B199B1A994633002E004D46B946DB
:105170005F469B460C9122004B46013439002020AB
:10518000B047AC42F7D143460C9901330F930B78EB
:1051900035000C935E46BB464F46002B00D10EE512
:1051A0000D9B002B00D1F6E4002319E60C9B1B7825
:1051B0001A0015E710239A430D92EFE60C9B1B781B
:1051C000099361E6002399460028AAD10022002312
:1051D0001092119374E70C9B2200187859463B00FB
:1051E000A8474C468BE50C9AFA3BFF3B07329A43A3
:1051F0000133994691444B460C93136852681592BB
:105200001A4306D11032904300220992002900D09F
:1052100081E06122810600D54122D2B20A9214AA0D
:1052200091460A9A00210A3A14924246179252462F
:1052300018925A460991B3461F311E000F9B4944EC
:10524000BA4619941A950024674698468946159DD2
:1052500016901B920AE03032D2B24B4601341A55F6
:10526000A8454AD0202C4AD006000D003A00002361
:1052700030002900FDF7ECFAD2B2092AEBD9149BD1
:105280009C466244D2B2E8E76123820600D54123FE
:10529000DBB20A3B0C93434614A91F228C4615939C
:1052A00053466244A046B2464C461797A94617009B
:1052B000099D0D9E1490169308E03033DBB2013443
:1052C0003B55B5420ED3202C0CD0050031002800F0
:1052D000FDF780FACBB20929EFD90C9A94466344C2
:1052E000DBB2ECE7159B4D46A14644469846169B1B
:1052F000564614989A46179FD0E5B742B2D9179BE5
:1053000057469846189B5E469A461B9B09949B46B7
:105310001698199C1A9D43460593534604930D9B7A
:105320000690039300230293099B05E70F9B984582
:1053300000D914E701330F932DE410231100994392
:105340000D91692800D0BAE080231000DB001840DE
:105350001A4200D122E61DE60C9B1B68DA0F1100F1
:10536000002B00D18CE0DA179818504014AA91460F
:1053700042461F23149252464B44A046A946169714
:1053800004006546B2461F000C91159201E0202DE5
:105390000FD020000A21FDF71DFA01357E193031AA
:1053A000317020000A21FDF715FA26000400092EAD
:1053B000EDD8149B444698460C9BAC461900159BAF
:1053C00056464D469A46169F0D9B029106934346BC
:1053D0000593534604930A23039363463CE600284F
:1053E00000D02EE602E60C9B1B689946002B03D1E9
:1053F00010339843002938D16123820600D5412318
:10540000DBB20A3B0C9343461693534614A91F2262
:105410008C4617932B006244A0464D46B24618971F
:1054200099461700149C0D9E159008E03033DBB2AE
:1054300001343B55B5420ED3202C0CD00500310071
:105440002800FDF7C7F9CBB20929EFD90C9A944689
:105450006344DBB2ECE7169B149444469846179BD2
:1054600056464D469A461598189F4346059353460F
:1054700004930D9B0690039300230293149BEBE58A
:105480000028A1D172E70C9B1B68D9175A184A4013
:10549000A6E580231000DB0018409C460F901A42BE
:1054A0000FD00220030013400F93104219D00023A5
:1054B000A1460F934CE50C9B1B680993E4E40A009A
:1054C00034E40223180010400D90134200D03EE552
:1054D0004346002B00D042E6FFF771FB01330F93E8
:1054E0007FE463460D93F3E70EB4012230B584B038
:1054F00007AC08CC064D01000094280052420394EA
:10550000FFF702FA04B030BC08BC03B01847C0462D
:10551000513C001010B5054C82B0009313000A00F6
:1055200001002000FFF7F0F902B010BD513C00105F
:105530000FB430B50C4985B008AA08CA0D680392AB
:10554000002D0CD000920122084C5242200002A9EA
:10555000A847012005B030BC08BC04B018471800AB
:1055600000F036FA0020F5E76C590020D53E001017
:1055700010B5094A0300146884B0002C08D0012239
:1055800000910648524203A9A047012004B010BD73
:1055900000F01EFA0020F9E76C590020D53E0010FB
:1055A00000BEFDE7094A03001068002805D008493D
:1055B000C3188B4207D81360704706480449C318C4
:1055C00010608B42F7D901204042F5E76455002076
:1055D00000000420B05B0020002070470120404202
:1055E0007047C046030010B508001100002B05D11C
:1055F000044B1A685B6800F03FF910BD012040427F
:10560000FBE7C046488705100300013B10B50800C2
:105610001400012B06D801230022210000F0AEF86F
:10562000200010BD01204042FBE7C046012040425F
:105630007047C046012040427047C04601204042AA
:105640007047C0460300022200209A424041704742
:1056500010B5FFF7A5FFC04630B50D0083B01900A7
:10566000002A0BD0074B084C0192009302002B003C
:105670002000FFF75DFF0120FFF792FF034B1A00A8
:10568000F1E7C046486B0510586B0510DC6E05103D
:1056900070B5FCF753FF074D074EB54209D2002401
:1056A000013E761BB60808CD984723000134B3426B
:1056B000F9D170BDD468051000690510030010B55C
:1056C000080011001B68984710BDC046F0B5C646DB
:1056D00000B5437D07000C001600002B46D0002AC1
:1056E00017DD0B780A2B24D000239846012E13D007
:1056F00001252900635C01350A2B26D0B542F8D17B
:10570000464509DCA419013C23780D3B5A4253411C
:105710003B7580BCB846F0BD4346E018A419F11AA9
:10572000013C3B68984723780D3B5A4253413B75F7
:10573000EFE7037D002BD7D102210F483B68984744
:10574000012EDFD001239846D2E7631E5B5C0D2B50
:10575000D4D0884504DA4346C91AE0183B68984714
:10576000022105483B68A8469847C7E7036811002F
:1057700020009847CDE7C046A0890510F0B5454602
:10578000DE464E465746E0B583B091461C00804643
:105790000D00FCF7F9FB0023304A12184B41002B97
:1057A00002DA01222E4B52422E4908008A4651F05D
:1057B0003BF807006B1C03D1404645F031FB050068
:1057C000002C27D0284E294B1C68002C18D04B46A3
:1057D000002B21D1264B994602E02469002C0FD0E2
:1057E0002368002BF9D04B461B68002B01D09C424C
:1057F000F3D120002A004146B0472469002CEFD1A4
:10580000002F26D1280003B0F0BCBB46B246A94603
:10581000A046F0BD174ED6E7154B99460A239B4686
:1058200002E02469002CEBD02368002BF9D04B4612
:105830001B68002B01D0A342F3D12A00414620006F
:10584000B0476B465A462000DA71D91D0122B04795
:10585000E7E7504650F070FFD4E7C04640420F00E3
:10586000FFFFFF7F28310020CD560010505500204B
:1058700060550020BD560010F8B557464E464546C7
:10588000DE4698461A4BE0B59B461A4B07000E00C1
:1058900091469A46184D5B461C68002C03D115E0D2
:1058A0002469002C12D02B68002B01D0A342F7D121
:1058B000A368002BF4D03100380098470028EFDDB2
:1058C000F0BCBB46B246A946A046F8BD53465B6A4B
:1058D000984508D85246926A4A4502D3022040426F
:1058E000EEE79845FAD101200021FCF757FBD2E7FB
:1058F0005055002000400540605500200A4A1368BA
:10590000002B05D10CE01A001B691032002B07D0C8
:105910008342F8D1002902D11869106019617047DB
:105920000029FCD01060FAE75055002010B500F0B7
:105930003BF900F077FB012010BDC046F0B5CE4624
:10594000474680B583B06B460600DD1D2870FCF726
:105950001BFB0023194A12184B41002B02DA0122CB
:10596000174B524217490800884650F05DFF164B0E
:1059700081461C68002C14D0144F02E02469002CCE
:105980000FD02368002BF9D03B68002B01D09C423C
:10599000F4D1200001222900FFF798FE2469002C91
:1059A000EFD14B46002B05D1300003B0C0BCB94647
:1059B000B046F0BD404650F0BFFEF5E740420F0054
:1059C000FFFFFF7F28310020505500206055002048
:1059D00070B5040045F024FA0123010005000122FE
:1059E0002000FFF7CBFE084B1C68002C06D0636834
:1059F000002B05D098472469002CF8D1280070BDF1
:105A00002469002CF3D1F9E750550020F0B50029A6
:105A100015DD0E4B0D271A680D4B0E4CD3185D4249
:105A20006B41451820215B001E5F0478A64207D019
:105A300093691942FCD101301460A842F5D1F0BD40
:105A400093691942FCD11760F2E7C046905B0020D1
:105A50000080FCBF8C5B0020204B70B504000D1E45
:105A60001E682ADD002010211D4B013C1A68936935
:105A7000194214D1013093691942FCD1136823549F
:105A80008542F4D1002E08D050239363516B183B0C
:105A90000B4014498C4662441360280070BD002EF0
:105AA00008D050239363516B183B0B400D498C4633
:105AB000624413600028F1D10CE0002E0AD050227D
:105AC000074B1B689A63596B183A0A4005498C4684
:105AD00063441A6003204042E0E7C046E8540020D7
